:020000040800F2
:100000000028002025060008C9050008CF050008C3
:10001000D5050008DB050008E10500080000000028
:10002000000000000000000000000000E7050008DC
:10003000F305000800000000FF0500080B0600089B
:100040006D0600086D0600086D0600086D060008C4
:100050006D0600086D0600086D0600086D060008B4
:100060006D0600086D0600086D0600086D060008A4
:100070006D0600086D0600086D0600086D06000894
:100080006D0600086D0600086D0600086D06000884
:100090006D0600086D0600086D0600086D06000874
:1000A0006D0600086D0600086D0600086D06000864
:1000B0006D0600086D060008000000006D060008CF
:1000C0006D06000800000000000000006D0600083A
:1000D000000000006D0600086D060008000000002A
:1000E0006D0600086D0600086D060008000000009F
:1000F0000000000000000000000000000000000000
:0C01000000000000000000005FF808F1A3
:10010C0010B5054C237833B9044B13B10448AFF345
:10011C0000800123237010BD0C00002000000000A3
:10012C00CC0C000808B5034B1BB103490348AFF3D3
:10013C00008008BD0000000010000020CC0C00085E
:10014C0080B594B000AF7860C7F800C07B68002B16
:10015C006DDB7B68092B6ADC374A07F10803114613
:10016C004622184600F09EFD7A681346DB009B1A67
:10017C0007F150021344483B1B781A4601212F48C3
:10018C0000F054FD7A681346DB009B1A07F150020D
:10019C001344473B1B781A460221284800F046FDC1
:1001AC007A681346DB009B1A07F150021344463B56
:1001BC001B781A460421214800F038FD7A68134652
:1001CC00DB009B1A07F150021344453B1B781A467F
:1001DC0008211A4800F02AFD7A681346DB009B1AA6
:1001EC0007F150021344443B1B781A461021134864
:1001FC0000F01CFD7A681346DB009B1A07F15002D5
:10020C001344433B1B781A4620210C4800F00EFD8A
:10021C007A681346DB009B1A07F150021344423BE9
:10022C001B781A464021054800F000FD00E000BF95
:10023C005037BD4680BD00BFE40C0008000C0140E7
:10024C0080B584B000AF07F118033B6000F00AFAE8
:10025C0000F02EF90023FB600023BB6000237B60C1
:10026C00FB68002B24D100224FF480614F4800F032
:10027C00DDFC01224FF480714C4800F0D7FC0122C8
:10028C004FF40071494800F0D1FC00224FF400619A
:10029C00464800F0CBFC01224FF48051434800F05B
:1002AC00C5FC01224FF40051404800F0BFFC3AE07D
:1002BC00FB68032B0CD101224FF480613B4800F00A
:1002CC00B5FC00224FF40071384800F0AFFC2AE076
:1002DC00FB68052B18D101224FF40071334800F054
:1002EC00A5FC00224FF48071304800F09FFC0122E5
:1002FC004FF400612D4800F099FC00224FF400519E
:10030C002A4800F093FC0EE0FB68082B0BD101226D
:10031C004FF40051254800F089FC00224FF4805125
:10032C00224800F083FCFB68022B08DCFB68C3F15D
:10033C000303BB60FB68C3F105037B601FE0FB6834
:10034C00042B08DCFB68C3F10503BB60FB68C3F13D
:10035C0005037B6013E0FB68072B08DCFB68C3F12B
:10036C000A03BB60FB68C3F108037B6007E0FB6812
:10037C00C3F10A03BB60FB68C3F10A037B603B4615
:10038C009C46B868FFF7DCFE3B469C46786800F05C
:10039C000FF8FB680133FB60FB68092B01DD0023C0
:1003AC00FB604FF47A7000F0BFF959E70008014088
:1003BC0080B594B000AF7860C7F800C07B68002BA4
:1003CC006DDB7B68092B6ADC374A07F108031146A1
:1003DC004622184600F066FC7A681346DB009B1A2E
:1003EC0007F150021344483B1B781A4601212F4851
:1003FC0000F01CFC7A681346DB009B1A07F15002D4
:10040C001344473B1B781A460221284800F00EFC87
:10041C007A681346DB009B1A07F150021344463BE3
:10042C001B781A460421214800F000FC7A68134618
:10043C00DB009B1A07F150021344453B1B781A460C
:10044C0008211A4800F0F2FB7A681346DB009B1A6D
:10045C0007F150021344443B1B781A4610211348F1
:10046C0000F0E4FB7A681346DB009B1A07F150029C
:10047C001344433B1B781A4620210C4800F0D6FB52
:10048C007A681346DB009B1A07F150021344423B77
:10049C001B781A464021054800F0C8FB00E000BF5D
:1004AC005037BD4680BD00BFE40C00080008014079
:1004BC0080B586B000AF07F1080300221A605A60BD
:1004CC009A60DA60214B9B69204A43F004039361E4
:1004DC001E4B9B6903F004037B607B681B4B9B6981
:1004EC001A4A43F008039361184B9B6903F0080305
:1004FC003B603B68002243F67F71154800F096FB89
:10050C0000227F21134800F091FB43F67F73BB6000
:10051C000123FB6000233B6102237B6107F108038D
:10052C0019460B4800F008FA7F23BB600123FB60DF
:10053C0000233B6102237B6107F108031946054840
:10054C0000F0FAF900BF1837BD4680BD001002401C
:10055C0000080140000C014080B485B000AF154B81
:10056C009B69144A43F001039361124B9B6903F09E
:10057C000103BB60BB680F4BDB690E4A43F0805331
:10058C00D3610C4BDB6903F080537B607B680A4BB7
:10059C005B68FB60FB6823F0E063FB60FB6843F087
:1005AC008063FB60044AFB68536000BF1437BD4690
:1005BC0080BC7047001002400000014080B400AFC6
:1005CC00FEE780B400AFFEE780B400AFFEE780B476
:1005DC0000AFFEE780B400AFFEE780B400AF00BF11
:1005EC00BD4680BC704780B400AF00BFBD4680BC28
:1005FC00704780B400AF00BFBD4680BC704780B56B
:10060C0000AF00F075F800BF80BD80B400AF00BF34
:10061C00BD4680BC70470000FFF7F7FF0B480C4944
:10062C000C4A002302E0D458C4500433C4188C4242
:10063C00F9D3094A094C002301E013600432A242A9
:10064C00FBD300F00BFBFFF7FBFD70470000002015
:10065C000C000020340D00080C0000202C000020A1
:10066C00FEE7000080B500AF084B1B68074A43F05B
:10067C0010031360032000F02BF90F2000F008F892
:10068C00FFF76AFF0023184680BD00BF0020024020
:10069C0080B582B000AF7860124B1A68124B1B7891
:1006AC0019464FF47A73B3FBF1F3B2FBF3F318462C
:1006BC0000F035F90346002B01D001230EE07B68D6
:1006CC000F2B0AD8002279684FF0FF3000F00BF99D
:1006DC00064A7B681360002300E0012318460837A4
:1006EC00BD4680BD00000020080000200400002052
:1006FC0080B400AF054B1B781A46054B1B6813449E
:10070C00034A136000BFBD4680BC70470800002040
:10071C002800002080B400AF024B1B681846BD4671
:10072C0080BC70472800002080B584B000AF786092
:10073C00FFF7F0FFB8607B68FB60FB68B3F1FF3F2D
:10074C0005D00A4B1B781A46FB681344FB6000BFAC
:10075C00FFF7E0FF0246BB68D31AFA689A42F7D853
:10076C0000BF00BF1037BD4680BD00BF0800002091
:10077C0080B485B000AF78607B6803F00703FB6042
:10078C000C4BDB68BB60BA684FF6FF031340BB60D1
:10079C00FB681A02BB68134343F0BF6343F4003396
:1007AC00BB60044ABB68D36000BF1437BD4680BC35
:1007BC00704700BF00ED00E080B400AF044BDB6875
:1007CC001B0A03F007031846BD4680BC704700BFE8
:1007DC0000ED00E080B483B000AF03463960FB71DC
:1007EC0097F90730002B0ADB3B68DAB20C4997F912
:1007FC0007301201D2B20B4483F800230AE03B68A5
:10080C00DAB20849FB7903F00F03043B1201D2B2B0
:10081C000B441A7600BF0C37BD4680BC704700BF36
:10082C0000E100E000ED00E080B489B000AFF860BA
:10083C00B9607A60FB6803F00703FB61FB69C3F1E5
:10084C000703042B28BF0423BB61FB690433062B6D
:10085C0002D9FB69033B00E000237B614FF0FF32C0
:10086C00BB6902FA03F3DA43BB681A407B699A400E
:10087C004FF0FF317B6901FA03F3D9437B680B40DE
:10088C00134318462437BD4680BC704780B582B0F0
:10089C0000AF78607B68013BB3F1807F01D301230B
:1008AC000FE00A4A7B68013B53600F214FF0FF3089
:1008BC00FFF790FF054B00229A60044B07221A6049
:1008CC00002318460837BD4680BD00BF10E000E08D
:1008DC0080B582B000AF78607868FFF749FF00BF41
:1008EC000837BD4680BD80B586B000AF0346B96001
:1008FC007A60FB7300237B61FFF75EFF78617A6897
:10090C00B9687869FFF790FF024697F90F301146E6
:10091C001846FFF75FFF00BF1837BD4680BD80B596
:10092C0082B000AF78607868FFF7B0FF03461846D6
:10093C000837BD4680BD000080B48BB000AF786036
:10094C00396000237B6200233B6248E101227B6A11
:10095C0002FA03F3FB613B681B68FA691340BB6145
:10096C00BA69FB699A4240F037813B685B68A34ADD
:10097C0093425ED0A14A934275D8A14A934258D073
:10098C009F4A93426FD89F4A934252D09D4A9342BA
:10099C0069D89D4A93424CD09B4A934263D89B4A58
:1009AC00934246D0994A93425DD8122B2AD8122BE7
:1009BC0059D801A252F823F03F0A0008190A00087E
:1009CC002B0A00086D0A0008730A0008730A000855
:1009DC00730A0008730A0008730A0008730A0008F7
:1009EC00730A0008730A0008730A0008730A0008E7
:1009FC00730A0008730A0008730A0008210A000829
:100A0C00350A0008824A934213D02CE03B68DB681D
:100A1C003B6229E03B68DB6804333B6224E03B68C3
:100A2C00DB6808333B621FE03B68DB680C333B62DE
:100A3C001AE03B689B68002B02D104233B6213E055
:100A4C003B689B68012B05D108233B627B68FA69E4
:100A5C001A6109E008233B627B68FA695A6103E07A
:100A6C0000233B6200E000BFBB69FF2B01D87B6811
:100A7C0001E07B6804337B61BB69FF2B02D87B6A86
:100A8C009B0002E07B6A083B9B003B617B691A6818
:100A9C000F213B6901FA03F3DB431A40396A3B69C6
:100AAC0001FA03F31A437B691A603B685B6803F035
:100ABC008053002B00F09080564B9B69554A43F0B5
:100ACC0001039361534B9B6903F00103BB60BB684B
:100ADC00514A7B6A9B08023352F82330FB607B6AD5
:100AEC0003F003039B000F2202FA03F3DB43FA68C3
:100AFC001340FB607B68494A93420DD07B68484A9F
:100B0C00934207D07B68474A934201D1022304E009
:100B1C00032302E0012300E000237A6A02F00302BF
:100B2C0092009340FA681343FB603B497B6A9B0835
:100B3C000233FA6841F823203B685B6803F48013A6
:100B4C00002B06D0384B9A683749BB6913438B602E
:100B5C0006E0354B9A68BB69DB43334913408B6025
:100B6C003B685B6803F40013002B06D02E4BDA684D
:100B7C002D49BB691343CB6006E02B4BDA68BB698C
:100B8C00DB4329491340CB603B685B6803F40033BB
:100B9C00002B06D0244B5A682349BB6913434B6086
:100BAC0006E0214B5A68BB69DB431F4913404B607D
:100BBC003B685B6803F48033002B06D01A4B1A6831
:100BCC001949BB6913430B6006E0174B1A68BB69E4
:100BDC00DB43154913400B607B6A01337B623B6836
:100BEC001A687B6A22FA03F3002B7FF4AFAE00BFC6
:100BFC0000BF2C37BD4680BC704700BF00003210D0
:100C0C000000311000002210000021100000121012
:100C1C0000001110001002400000014000080140CB
:100C2C00000C0140001001400004014080B483B06E
:100C3C0000AF78600B467B8013467B707B78002B73
:100C4C0003D07A887B681A6103E07B881A047B687E
:100C5C001A6100BF0C37BD4680BC704770B50026CA
:100C6C000C4D0D4C641BA410A64209D100F028F8C1
:100C7C0000260A4D0A4C641BA410A64205D170BD77
:100C8C0055F8043B98470136EEE755F8043B984776
:100C9C000136F2E72C0D00082C0D00082C0D000875
:100CAC00300D00080A44914200F1FF3300D1704727
:100CBC0010B511F8014B914203F8014FF9D110BD59
:100CCC00F8B500BFF8BC08BC9E467047F8B500BF2D
:080CDC00F8BC08BC9E467047FD
:100CE40000000000000001010000010101010000FA
:100CF40001000001000000000001010001000001EA
:100D040001000000010000010000000100000000DB
:100D140000000000010101010000000000000000CB
:080D24000000000100000000C6
:040D2C003101000889
:040D30000D010008A9
:0C0D340000127A00100000000100000016
:0400000508000625C4
:00000001FF
